{
  "contractName": "AccessControl",
  "abi": [
    {
      "inputs": [],
      "stateMutability": "nonpayable",
      "type": "constructor"
    },
    {
      "inputs": [],
      "name": "ceoAddress",
      "outputs": [
        {
          "internalType": "address",
          "name": "",
          "type": "address"
        }
      ],
      "stateMutability": "view",
      "type": "function"
    },
    {
      "inputs": [],
      "name": "cooAddress",
      "outputs": [
        {
          "internalType": "address",
          "name": "",
          "type": "address"
        }
      ],
      "stateMutability": "view",
      "type": "function"
    },
    {
      "inputs": [],
      "name": "paused",
      "outputs": [
        {
          "internalType": "bool",
          "name": "",
          "type": "bool"
        }
      ],
      "stateMutability": "view",
      "type": "function"
    },
    {
      "inputs": [
        {
          "internalType": "address",
          "name": "_newCEO",
          "type": "address"
        }
      ],
      "name": "setCEO",
      "outputs": [],
      "stateMutability": "nonpayable",
      "type": "function"
    },
    {
      "inputs": [
        {
          "internalType": "address",
          "name": "_newCOO",
          "type": "address"
        }
      ],
      "name": "setCOO",
      "outputs": [],
      "stateMutability": "nonpayable",
      "type": "function"
    },
    {
      "inputs": [],
      "name": "pause",
      "outputs": [],
      "stateMutability": "nonpayable",
      "type": "function"
    },
    {
      "inputs": [],
      "name": "unpause",
      "outputs": [],
      "stateMutability": "nonpayable",
      "type": "function"
    }
  ],
  "bytecode": "0x60806040526000600160146101000a81548160ff02191690831515021790555034801561002b57600080fd5b50336000806101000a81548173ffffffffffffffffffffffffffffffffffffffff021916908373ffffffffffffffffffffffffffffffffffffffff16021790555033600160006101000a81548173ffffffffffffffffffffffffffffffffffffffff021916908373ffffffffffffffffffffffffffffffffffffffff160217905550610572806100bc6000396000f3fe608060405234801561001057600080fd5b506004361061007d5760003560e01c80633f4ba83a1161005b5780633f4ba83a146100d85780635c975abb146100e25780638456cb5914610100578063b047fb501461010a5761007d565b80630a0f81681461008257806327d7874c146100a05780632ba73c15146100bc575b600080fd5b61008a610128565b604051610097919061048d565b60405180910390f35b6100ba60048036038101906100b591906104d9565b61014c565b005b6100d660048036038101906100d191906104d9565b610221565b005b6100e06102f7565b005b6100ea610385565b6040516100f79190610521565b60405180910390f35b610108610398565b005b610112610426565b60405161011f919061048d565b60405180910390f35b60008054906101000a900473ffffffffffffffffffffffffffffffffffffffff1681565b60008054906101000a900473ffffffffffffffffffffffffffffffffffffffff1673ffffffffffffffffffffffffffffffffffffffff163373ffffffffffffffffffffffffffffffffffffffff16146101a457600080fd5b600073ffffffffffffffffffffffffffffffffffffffff168173ffffffffffffffffffffffffffffffffffffffff1614156101de57600080fd5b806000806101000a81548173ffffffffffffffffffffffffffffffffffffffff021916908373ffffffffffffffffffffffffffffffffffffffff16021790555050565b60008054906101000a900473ffffffffffffffffffffffffffffffffffffffff1673ffffffffffffffffffffffffffffffffffffffff163373ffffffffffffffffffffffffffffffffffffffff161461027957600080fd5b600073ffffffffffffffffffffffffffffffffffffffff168173ffffffffffffffffffffffffffffffffffffffff1614156102b357600080fd5b80600160006101000a81548173ffffffffffffffffffffffffffffffffffffffff021916908373ffffffffffffffffffffffffffffffffffffffff16021790555050565b60008054906101000a900473ffffffffffffffffffffffffffffffffffffffff1673ffffffffffffffffffffffffffffffffffffffff163373ffffffffffffffffffffffffffffffffffffffff161461034f57600080fd5b600160149054906101000a900460ff1661036857600080fd5b6000600160146101000a81548160ff021916908315150217905550565b600160149054906101000a900460ff1681565b60008054906101000a900473ffffffffffffffffffffffffffffffffffffffff1673ffffffffffffffffffffffffffffffffffffffff163373ffffffffffffffffffffffffffffffffffffffff16146103f057600080fd5b600160149054906101000a900460ff161561040a57600080fd5b60018060146101000a81548160ff021916908315150217905550565b600160009054906101000a900473ffffffffffffffffffffffffffffffffffffffff1681565b600073ffffffffffffffffffffffffffffffffffffffff82169050919050565b60006104778261044c565b9050919050565b6104878161046c565b82525050565b60006020820190506104a2600083018461047e565b92915050565b600080fd5b6104b68161046c565b81146104c157600080fd5b50565b6000813590506104d3816104ad565b92915050565b6000602082840312156104ef576104ee6104a8565b5b60006104fd848285016104c4565b91505092915050565b60008115159050919050565b61051b81610506565b82525050565b60006020820190506105366000830184610512565b9291505056fea2646970667358221220d6c3a64767a309731d2a740e38db0477a6dcdf88c83ea06791c61c585d5587a264736f6c634300080a0033",
  "immutableReferences": {},
  "source": "pragma solidity ^0.8.6;\n\n// inspired by\n// https://github.com/axiomzen/cryptokitties-bounty/blob/master/contracts/KittyAccessControl.sol\ncontract AccessControl {\n  /// @dev The addresses of the accounts (or contracts) that can execute actions within each roles\n  address public ceoAddress;\n  address public cooAddress;\n\n  /// @dev Keeps track whether the contract is paused. When that is true, most actions are blocked\n  bool public paused = false;\n\n  /// @dev The AccessControl constructor sets the original C roles of the contract to the sender account\n  /// function AccessControl() public {\n  constructor() {\n    ceoAddress = msg.sender;\n    cooAddress = msg.sender;\n  }\n\n  /// @dev Access modifier for CEO-only functionality\n  modifier onlyCEO() {\n    require(msg.sender == ceoAddress);\n    _;\n  }\n\n  /// @dev Access modifier for COO-only functionality\n  modifier onlyCOO() {\n    require(msg.sender == cooAddress);\n    _;\n  }\n\n  /// @dev Access modifier for any CLevel functionality\n  modifier onlyCLevel() {\n    require(msg.sender == ceoAddress || msg.sender == cooAddress);\n    _;\n  }\n\n  /// @dev Assigns a new address to act as the CEO. Only available to the current CEO\n  /// @param _newCEO The address of the new CEO\n  function setCEO(address _newCEO) public onlyCEO {\n    require(_newCEO != address(0));\n    ceoAddress = _newCEO;\n  }\n\n  /// @dev Assigns a new address to act as the COO. Only available to the current CEO\n  /// @param _newCOO The address of the new COO\n  function setCOO(address _newCOO) public onlyCEO {\n    require(_newCOO != address(0));\n    cooAddress = _newCOO;\n  }\n\n  /// @dev Modifier to allow actions only when the contract IS NOT paused\n  modifier whenNotPaused() {\n    require(!paused);\n    _;\n  }\n\n  /// @dev Modifier to allow actions only when the contract IS paused\n  modifier whenPaused() {\n    require(paused);\n    _;\n  }\n\n  /// @dev Pause the smart contract. Only can be called by the CEO\n  function pause() public onlyCEO whenNotPaused {\n    paused = true;\n  }\n\n  /// @dev Unpauses the smart contract. Only can be called by the CEO\n  function unpause() public onlyCEO whenPaused {\n    paused = false;\n  }\n}\n",
  "sourcePath": "/home/rincewind/Documents/ethereum/cryptodoggies/contracts/AccessControl.sol",
  "compiler": {
    "name": "solc",
    "version": "0.8.10+commit.fc410830.Emscripten.clang"
  },
  "schemaVersion": "3.4.3",
  "updatedAt": "2021-11-24T20:08:07.055Z",
  "devdoc": {
    "kind": "dev",
    "methods": {
      "constructor": {
        "details": "The AccessControl constructor sets the original C roles of the contract to the sender account function AccessControl() public {"
      },
      "pause()": {
        "details": "Pause the smart contract. Only can be called by the CEO"
      },
      "setCEO(address)": {
        "details": "Assigns a new address to act as the CEO. Only available to the current CEO",
        "params": {
          "_newCEO": "The address of the new CEO"
        }
      },
      "setCOO(address)": {
        "details": "Assigns a new address to act as the COO. Only available to the current CEO",
        "params": {
          "_newCOO": "The address of the new COO"
        }
      },
      "unpause()": {
        "details": "Unpauses the smart contract. Only can be called by the CEO"
      }
    },
    "stateVariables": {
      "ceoAddress": {
        "details": "The addresses of the accounts (or contracts) that can execute actions within each roles"
      },
      "paused": {
        "details": "Keeps track whether the contract is paused. When that is true, most actions are blocked"
      }
    },
    "version": 1
  },
  "userdoc": {
    "kind": "user",
    "methods": {},
    "version": 1
  }
}