{
  "contractName": "CryptoDoggies",
  "abi": [
    {
      "anonymous": false,
      "inputs": [
        {
          "indexed": true,
          "internalType": "address",
          "name": "_owner",
          "type": "address"
        },
        {
          "indexed": true,
          "internalType": "address",
          "name": "_approved",
          "type": "address"
        },
        {
          "indexed": false,
          "internalType": "uint256",
          "name": "_tokenId",
          "type": "uint256"
        }
      ],
      "name": "Approval",
      "type": "event"
    },
    {
      "anonymous": false,
      "inputs": [
        {
          "indexed": false,
          "internalType": "uint256",
          "name": "tokenId",
          "type": "uint256"
        },
        {
          "indexed": false,
          "internalType": "string",
          "name": "name",
          "type": "string"
        },
        {
          "indexed": false,
          "internalType": "bytes5",
          "name": "dna",
          "type": "bytes5"
        },
        {
          "indexed": false,
          "internalType": "uint256",
          "name": "price",
          "type": "uint256"
        },
        {
          "indexed": false,
          "internalType": "address",
          "name": "owner",
          "type": "address"
        }
      ],
      "name": "TokenCreated",
      "type": "event"
    },
    {
      "anonymous": false,
      "inputs": [
        {
          "indexed": true,
          "internalType": "uint256",
          "name": "tokenId",
          "type": "uint256"
        },
        {
          "indexed": false,
          "internalType": "string",
          "name": "name",
          "type": "string"
        },
        {
          "indexed": false,
          "internalType": "bytes5",
          "name": "dna",
          "type": "bytes5"
        },
        {
          "indexed": false,
          "internalType": "uint256",
          "name": "sellingPrice",
          "type": "uint256"
        },
        {
          "indexed": false,
          "internalType": "uint256",
          "name": "newPrice",
          "type": "uint256"
        },
        {
          "indexed": true,
          "internalType": "address",
          "name": "oldOwner",
          "type": "address"
        },
        {
          "indexed": true,
          "internalType": "address",
          "name": "newOwner",
          "type": "address"
        }
      ],
      "name": "TokenSold",
      "type": "event"
    },
    {
      "anonymous": false,
      "inputs": [
        {
          "indexed": true,
          "internalType": "address",
          "name": "_from",
          "type": "address"
        },
        {
          "indexed": true,
          "internalType": "address",
          "name": "_to",
          "type": "address"
        },
        {
          "indexed": false,
          "internalType": "uint256",
          "name": "_tokenId",
          "type": "uint256"
        }
      ],
      "name": "Transfer",
      "type": "event"
    },
    {
      "inputs": [],
      "name": "ceoAddress",
      "outputs": [
        {
          "internalType": "address",
          "name": "",
          "type": "address"
        }
      ],
      "stateMutability": "view",
      "type": "function",
      "constant": true
    },
    {
      "inputs": [],
      "name": "cooAddress",
      "outputs": [
        {
          "internalType": "address",
          "name": "",
          "type": "address"
        }
      ],
      "stateMutability": "view",
      "type": "function",
      "constant": true
    },
    {
      "inputs": [],
      "name": "pause",
      "outputs": [],
      "stateMutability": "nonpayable",
      "type": "function"
    },
    {
      "inputs": [],
      "name": "paused",
      "outputs": [
        {
          "internalType": "bool",
          "name": "",
          "type": "bool"
        }
      ],
      "stateMutability": "view",
      "type": "function",
      "constant": true
    },
    {
      "inputs": [
        {
          "internalType": "address",
          "name": "_newCEO",
          "type": "address"
        }
      ],
      "name": "setCEO",
      "outputs": [],
      "stateMutability": "nonpayable",
      "type": "function"
    },
    {
      "inputs": [
        {
          "internalType": "address",
          "name": "_newCOO",
          "type": "address"
        }
      ],
      "name": "setCOO",
      "outputs": [],
      "stateMutability": "nonpayable",
      "type": "function"
    },
    {
      "inputs": [],
      "name": "unpause",
      "outputs": [],
      "stateMutability": "nonpayable",
      "type": "function"
    },
    {
      "inputs": [
        {
          "internalType": "string",
          "name": "_name",
          "type": "string"
        },
        {
          "internalType": "address",
          "name": "_owner",
          "type": "address"
        },
        {
          "internalType": "uint256",
          "name": "_price",
          "type": "uint256"
        }
      ],
      "name": "createToken",
      "outputs": [],
      "stateMutability": "nonpayable",
      "type": "function"
    },
    {
      "inputs": [
        {
          "internalType": "string",
          "name": "_name",
          "type": "string"
        }
      ],
      "name": "createToken",
      "outputs": [],
      "stateMutability": "nonpayable",
      "type": "function"
    },
    {
      "inputs": [
        {
          "internalType": "uint256",
          "name": "_tokenId",
          "type": "uint256"
        }
      ],
      "name": "getToken",
      "outputs": [
        {
          "internalType": "string",
          "name": "_tokenName",
          "type": "string"
        },
        {
          "internalType": "bytes5",
          "name": "_dna",
          "type": "bytes5"
        },
        {
          "internalType": "uint256",
          "name": "_price",
          "type": "uint256"
        },
        {
          "internalType": "uint256",
          "name": "_nextPrice",
          "type": "uint256"
        },
        {
          "internalType": "address",
          "name": "_owner",
          "type": "address"
        }
      ],
      "stateMutability": "view",
      "type": "function",
      "constant": true
    },
    {
      "inputs": [],
      "name": "getAllTokens",
      "outputs": [
        {
          "internalType": "uint256[]",
          "name": "",
          "type": "uint256[]"
        },
        {
          "internalType": "uint256[]",
          "name": "",
          "type": "uint256[]"
        },
        {
          "internalType": "address[]",
          "name": "",
          "type": "address[]"
        }
      ],
      "stateMutability": "view",
      "type": "function",
      "constant": true
    },
    {
      "inputs": [
        {
          "internalType": "address",
          "name": "_owner",
          "type": "address"
        }
      ],
      "name": "tokensOf",
      "outputs": [
        {
          "internalType": "uint256[]",
          "name": "",
          "type": "uint256[]"
        }
      ],
      "stateMutability": "view",
      "type": "function",
      "constant": true
    },
    {
      "inputs": [
        {
          "internalType": "address",
          "name": "_to",
          "type": "address"
        },
        {
          "internalType": "uint256",
          "name": "_amount",
          "type": "uint256"
        }
      ],
      "name": "withdrawBalance",
      "outputs": [],
      "stateMutability": "nonpayable",
      "type": "function"
    },
    {
      "inputs": [
        {
          "internalType": "uint256",
          "name": "_tokenId",
          "type": "uint256"
        }
      ],
      "name": "purchase",
      "outputs": [],
      "stateMutability": "payable",
      "type": "function",
      "payable": true
    },
    {
      "inputs": [
        {
          "internalType": "uint256",
          "name": "_tokenId",
          "type": "uint256"
        }
      ],
      "name": "priceOf",
      "outputs": [
        {
          "internalType": "uint256",
          "name": "_price",
          "type": "uint256"
        }
      ],
      "stateMutability": "view",
      "type": "function",
      "constant": true
    },
    {
      "inputs": [
        {
          "internalType": "uint256",
          "name": "_tokenId",
          "type": "uint256"
        }
      ],
      "name": "nextPriceOf",
      "outputs": [
        {
          "internalType": "uint256",
          "name": "_nextPrice",
          "type": "uint256"
        }
      ],
      "stateMutability": "view",
      "type": "function",
      "constant": true
    },
    {
      "inputs": [],
      "name": "enableERC721",
      "outputs": [],
      "stateMutability": "nonpayable",
      "type": "function"
    },
    {
      "inputs": [],
      "name": "totalSupply",
      "outputs": [
        {
          "internalType": "uint256",
          "name": "_totalSupply",
          "type": "uint256"
        }
      ],
      "stateMutability": "view",
      "type": "function",
      "constant": true
    },
    {
      "inputs": [
        {
          "internalType": "address",
          "name": "_owner",
          "type": "address"
        }
      ],
      "name": "balanceOf",
      "outputs": [
        {
          "internalType": "uint256",
          "name": "_balance",
          "type": "uint256"
        }
      ],
      "stateMutability": "view",
      "type": "function",
      "constant": true
    },
    {
      "inputs": [
        {
          "internalType": "uint256",
          "name": "_tokenId",
          "type": "uint256"
        }
      ],
      "name": "ownerOf",
      "outputs": [
        {
          "internalType": "address",
          "name": "_owner",
          "type": "address"
        }
      ],
      "stateMutability": "view",
      "type": "function",
      "constant": true
    },
    {
      "inputs": [
        {
          "internalType": "address",
          "name": "_to",
          "type": "address"
        },
        {
          "internalType": "uint256",
          "name": "_tokenId",
          "type": "uint256"
        }
      ],
      "name": "approve",
      "outputs": [],
      "stateMutability": "nonpayable",
      "type": "function"
    },
    {
      "inputs": [
        {
          "internalType": "address",
          "name": "_from",
          "type": "address"
        },
        {
          "internalType": "address",
          "name": "_to",
          "type": "address"
        },
        {
          "internalType": "uint256",
          "name": "_tokenId",
          "type": "uint256"
        }
      ],
      "name": "transferFrom",
      "outputs": [],
      "stateMutability": "nonpayable",
      "type": "function"
    },
    {
      "inputs": [
        {
          "internalType": "address",
          "name": "_to",
          "type": "address"
        },
        {
          "internalType": "uint256",
          "name": "_tokenId",
          "type": "uint256"
        }
      ],
      "name": "transfer",
      "outputs": [],
      "stateMutability": "nonpayable",
      "type": "function"
    },
    {
      "inputs": [],
      "name": "implementsERC721",
      "outputs": [
        {
          "internalType": "bool",
          "name": "",
          "type": "bool"
        }
      ],
      "stateMutability": "view",
      "type": "function",
      "constant": true
    },
    {
      "inputs": [
        {
          "internalType": "uint256",
          "name": "_tokenId",
          "type": "uint256"
        }
      ],
      "name": "takeOwnership",
      "outputs": [],
      "stateMutability": "nonpayable",
      "type": "function"
    },
    {
      "inputs": [],
      "name": "name",
      "outputs": [
        {
          "internalType": "string",
          "name": "_name",
          "type": "string"
        }
      ],
      "stateMutability": "pure",
      "type": "function",
      "constant": true
    },
    {
      "inputs": [],
      "name": "symbol",
      "outputs": [
        {
          "internalType": "string",
          "name": "_symbol",
          "type": "string"
        }
      ],
      "stateMutability": "pure",
      "type": "function",
      "constant": true
    }
  ],
  "bytecode": "0x60806040526000600160146101000a81548160ff021916908315150217905550662386f26fc100006007556000600860006101000a81548160ff02191690831515021790555066470de4df8200006009556706f05b59d3b20000600a55671bc16d674ec80000600b55674563918244f40000600c5534801561008057600080fd5b50336000806101000a81548173ffffffffffffffffffffffffffffffffffffffff021916908373ffffffffffffffffffffffffffffffffffffffff16021790555033600160006101000a81548173ffffffffffffffffffffffffffffffffffffffff021916908373ffffffffffffffffffffffffffffffffffffffff160217905550612aa5806101116000396000f3fe60806040526004361061019c5760003560e01c80635ba9e48e116100ec57806395d89b411161008a578063b2e6ceeb11610064578063b2e6ceeb1461057c578063b9186d7d146105a5578063e4b50cb8146105e2578063efef39a1146106235761019c565b806395d89b41146104fd578063a9059cbb14610528578063b047fb50146105515761019c565b806370a08231116100c657806370a082311461046957806371dc761e146104a657806373b4df05146104bd5780638456cb59146104e65761019c565b80635ba9e48e146103c45780635c975abb146104015780636352211e1461042c5761019c565b806323b872dd116101595780632ba73c15116101335780632ba73c151461031e5780633f4ba83a1461034757806345576f941461035e5780635a3f2672146103875761019c565b806323b872dd1461029f57806327d7874c146102c85780632a5c792a146102f15761019c565b806306fdde03146101a1578063095ea7b3146101cc5780630a0f8168146101f55780630cf20cc9146102205780631051db341461024957806318160ddd14610274575b600080fd5b3480156101ad57600080fd5b506101b661063f565b6040516101c39190612038565b60405180910390f35b3480156101d857600080fd5b506101f360048036038101906101ee9190612102565b61067c565b005b34801561020157600080fd5b5061020a61077d565b6040516102179190612151565b60405180910390f35b34801561022c57600080fd5b5061024760048036038101906102429190612102565b6107a1565b005b34801561025557600080fd5b5061025e610900565b60405161026b9190612187565b60405180910390f35b34801561028057600080fd5b50610289610931565b60405161029691906121b1565b60405180910390f35b3480156102ab57600080fd5b506102c660048036038101906102c191906121cc565b61093e565b005b3480156102d457600080fd5b506102ef60048036038101906102ea919061221f565b6109e1565b005b3480156102fd57600080fd5b50610306610ab6565b604051610315939291906123c8565b60405180910390f35b34801561032a57600080fd5b506103456004803603810190610340919061221f565b610cbb565b005b34801561035357600080fd5b5061035c610d91565b005b34801561036a57600080fd5b5061038560048036038101906103809190612549565b610e1f565b005b34801561039357600080fd5b506103ae60048036038101906103a9919061221f565b610eed565b6040516103bb9190612592565b60405180910390f35b3480156103d057600080fd5b506103eb60048036038101906103e691906125b4565b611073565b6040516103f891906121b1565b60405180910390f35b34801561040d57600080fd5b50610416611195565b6040516104239190612187565b60405180910390f35b34801561043857600080fd5b50610453600480360381019061044e91906125b4565b6111a8565b6040516104609190612151565b60405180910390f35b34801561047557600080fd5b50610490600480360381019061048b919061221f565b6111e5565b60405161049d91906121b1565b60405180910390f35b3480156104b257600080fd5b506104bb61122e565b005b3480156104c957600080fd5b506104e460048036038101906104df91906125e1565b6112a3565b005b3480156104f257600080fd5b506104fb6113ba565b005b34801561050957600080fd5b50610512611448565b60405161051f9190612038565b60405180910390f35b34801561053457600080fd5b5061054f600480360381019061054a9190612102565b611485565b005b34801561055d57600080fd5b50610566611514565b6040516105739190612151565b60405180910390f35b34801561058857600080fd5b506105a3600480360381019061059e91906125b4565b61153a565b005b3480156105b157600080fd5b506105cc60048036038101906105c791906125b4565b6115c1565b6040516105d991906121b1565b60405180910390f35b3480156105ee57600080fd5b50610609600480360381019061060491906125b4565b6115de565b60405161061a95949392919061268b565b60405180910390f35b61063d600480360381019061063891906125b4565b61172b565b005b60606040518060400160405280600d81526020017f43727970746f446f676769657300000000000000000000000000000000000000815250905090565b600160149054906101000a900460ff161561069657600080fd5b600860009054906101000a900460ff166106af57600080fd5b6106b93382611a3b565b6106c257600080fd5b816005600083815260200190815260200160002060006101000a81548173ffffffffffffffffffffffffffffffffffffffff021916908373ffffffffffffffffffffffffffffffffffffffff1602179055508173ffffffffffffffffffffffffffffffffffffffff163373ffffffffffffffffffffffffffffffffffffffff167f8c5be1e5ebec7d5bd14f71427d1e84f3dd0314c0f7b2291e5b200ac8c7c3b9258360405161077191906121b1565b60405180910390a35050565b60008054906101000a900473ffffffffffffffffffffffffffffffffffffffff1681565b60008054906101000a900473ffffffffffffffffffffffffffffffffffffffff1673ffffffffffffffffffffffffffffffffffffffff163373ffffffffffffffffffffffffffffffffffffffff16146107f957600080fd5b4781111561080657600080fd5b6000811415610813574790505b600073ffffffffffffffffffffffffffffffffffffffff168273ffffffffffffffffffffffffffffffffffffffff1614156108b45760008054906101000a900473ffffffffffffffffffffffffffffffffffffffff1673ffffffffffffffffffffffffffffffffffffffff166108fc829081150290604051600060405180830381858888f193505050501580156108ae573d6000803e3d6000fd5b506108fc565b8173ffffffffffffffffffffffffffffffffffffffff166108fc829081150290604051600060405180830381858888f193505050501580156108fa573d6000803e3d6000fd5b505b5050565b6000600160149054906101000a900460ff161561091c57600080fd5b600860009054906101000a900460ff16905090565b6000600680549050905090565b600160149054906101000a900460ff161561095857600080fd5b600860009054906101000a900460ff1661097157600080fd5b600073ffffffffffffffffffffffffffffffffffffffff168273ffffffffffffffffffffffffffffffffffffffff1614156109ab57600080fd5b6109b58382611a3b565b6109be57600080fd5b6109c83382611aa7565b6109d157600080fd5b6109dc838383611b13565b505050565b60008054906101000a900473ffffffffffffffffffffffffffffffffffffffff1673ffffffffffffffffffffffffffffffffffffffff163373ffffffffffffffffffffffffffffffffffffffff1614610a3957600080fd5b600073ffffffffffffffffffffffffffffffffffffffff168173ffffffffffffffffffffffffffffffffffffffff161415610a7357600080fd5b806000806101000a81548173ffffffffffffffffffffffffffffffffffffffff021916908373ffffffffffffffffffffffffffffffffffffffff16021790555050565b60608060606000610ac5610931565b905060008167ffffffffffffffff811115610ae357610ae261241e565b5b604051908082528060200260200182016040528015610b115781602001602082028036833780820191505090505b50905060008267ffffffffffffffff811115610b3057610b2f61241e565b5b604051908082528060200260200182016040528015610b5e5781602001602082028036833780820191505090505b50905060008367ffffffffffffffff811115610b7d57610b7c61241e565b5b604051908082528060200260200182016040528015610bab5781602001602082028036833780820191505090505b50905060005b84811015610ca8576003600082815260200190815260200160002054848281518110610be057610bdf6126e5565b5b602002602001018181525050610bf581611073565b838281518110610c0857610c076126e5565b5b6020026020010181815250506002600082815260200190815260200160002060009054906101000a900473ffffffffffffffffffffffffffffffffffffffff16828281518110610c5b57610c5a6126e5565b5b602002602001019073ffffffffffffffffffffffffffffffffffffffff16908173ffffffffffffffffffffffffffffffffffffffff16815250508080610ca090612743565b915050610bb1565b5082828296509650965050505050909192565b60008054906101000a900473ffffffffffffffffffffffffffffffffffffffff1673ffffffffffffffffffffffffffffffffffffffff163373ffffffffffffffffffffffffffffffffffffffff1614610d1357600080fd5b600073ffffffffffffffffffffffffffffffffffffffff168173ffffffffffffffffffffffffffffffffffffffff161415610d4d57600080fd5b80600160006101000a81548173ffffffffffffffffffffffffffffffffffffffff021916908373ffffffffffffffffffffffffffffffffffffffff16021790555050565b60008054906101000a900473ffffffffffffffffffffffffffffffffffffffff1673ffffffffffffffffffffffffffffffffffffffff163373ffffffffffffffffffffffffffffffffffffffff1614610de957600080fd5b600160149054906101000a900460ff16610e0257600080fd5b6000600160146101000a81548160ff021916908315150217905550565b60008054906101000a900473ffffffffffffffffffffffffffffffffffffffff1673ffffffffffffffffffffffffffffffffffffffff163373ffffffffffffffffffffffffffffffffffffffff161480610ec65750600160009054906101000a900473ffffffffffffffffffffffffffffffffffffffff1673ffffffffffffffffffffffffffffffffffffffff163373ffffffffffffffffffffffffffffffffffffffff16145b610ecf57600080fd5b6000610ed9611ce4565b9050610ee9828230600754611d36565b5050565b60606000610efa836111e5565b90506000811415610f5757600067ffffffffffffffff811115610f2057610f1f61241e565b5b604051908082528060200260200182016040528015610f4e5781602001602082028036833780820191505090505b5091505061106e565b60008167ffffffffffffffff811115610f7357610f7261241e565b5b604051908082528060200260200182016040528015610fa15781602001602082028036833780820191505090505b5090506000610fae610931565b90506000805b82811015611065578673ffffffffffffffffffffffffffffffffffffffff166002600083815260200190815260200160002060009054906101000a900473ffffffffffffffffffffffffffffffffffffffff1673ffffffffffffffffffffffffffffffffffffffff1614156110525780848381518110611037576110366126e5565b5b602002602001018181525050818061104e90612743565b9250505b808061105d90612743565b915050610fb4565b50829450505050505b919050565b60008061107f836115c1565b90506009548110156110ba576110b2605f6110a460c884611e5e90919063ffffffff16565b611ea790919063ffffffff16565b915050611190565b600a548110156110f3576110eb60606110dd608784611e5e90919063ffffffff16565b611ea790919063ffffffff16565b915050611190565b600b5481101561112c576111246061611116607d84611e5e90919063ffffffff16565b611ea790919063ffffffff16565b915050611190565b600c548110156111655761115d606161114f607584611e5e90919063ffffffff16565b611ea790919063ffffffff16565b915050611190565b61118c606261117e607384611e5e90919063ffffffff16565b611ea790919063ffffffff16565b9150505b919050565b600160149054906101000a900460ff1681565b60006002600083815260200190815260200160002060009054906101000a900473ffffffffffffffffffffffffffffffffffffffff169050919050565b6000600460008373ffffffffffffffffffffffffffffffffffffffff1673ffffffffffffffffffffffffffffffffffffffff168152602001908152602001600020549050919050565b60008054906101000a900473ffffffffffffffffffffffffffffffffffffffff1673ffffffffffffffffffffffffffffffffffffffff163373ffffffffffffffffffffffffffffffffffffffff161461128657600080fd5b6001600860006101000a81548160ff021916908315150217905550565b60008054906101000a900473ffffffffffffffffffffffffffffffffffffffff1673ffffffffffffffffffffffffffffffffffffffff163373ffffffffffffffffffffffffffffffffffffffff16148061134a5750600160009054906101000a900473ffffffffffffffffffffffffffffffffffffffff1673ffffffffffffffffffffffffffffffffffffffff163373ffffffffffffffffffffffffffffffffffffffff16145b61135357600080fd5b600073ffffffffffffffffffffffffffffffffffffffff168273ffffffffffffffffffffffffffffffffffffffff16141561138d57600080fd5b60075481101561139c57600080fd5b60006113a6611ce4565b90506113b484828585611d36565b50505050565b60008054906101000a900473ffffffffffffffffffffffffffffffffffffffff1673ffffffffffffffffffffffffffffffffffffffff163373ffffffffffffffffffffffffffffffffffffffff161461141257600080fd5b600160149054906101000a900460ff161561142c57600080fd5b60018060146101000a81548160ff021916908315150217905550565b60606040518060400160405280600381526020017f4344540000000000000000000000000000000000000000000000000000000000815250905090565b600160149054906101000a900460ff161561149f57600080fd5b600860009054906101000a900460ff166114b857600080fd5b600073ffffffffffffffffffffffffffffffffffffffff168273ffffffffffffffffffffffffffffffffffffffff1614156114f257600080fd5b6114fc3382611a3b565b61150557600080fd5b611510338383611b13565b5050565b600160009054906101000a900473ffffffffffffffffffffffffffffffffffffffff1681565b600160149054906101000a900460ff161561155457600080fd5b600860009054906101000a900460ff1661156d57600080fd5b6115773382611aa7565b61158057600080fd5b6115be6002600083815260200190815260200160002060009054906101000a900473ffffffffffffffffffffffffffffffffffffffff163383611b13565b50565b600060036000838152602001908152602001600020549050919050565b6060600080600080600686815481106115fa576115f96126e5565b5b90600052602060002090600202016000018054611616906127bb565b80601f0160208091040260200160405190810160405280929190818152602001828054611642906127bb565b801561168f5780601f106116645761010080835404028352916020019161168f565b820191906000526020600020905b81548152906001019060200180831161167257829003601f168201915b50505050509450600686815481106116aa576116a96126e5565b5b906000526020600020906002020160010160009054906101000a900460d81b9350600360008781526020019081526020016000205492506116ea86611073565b91506002600087815260200190815260200160002060009054906101000a900473ffffffffffffffffffffffffffffffffffffffff16905091939590929450565b600160149054906101000a900460ff161561174557600080fd5b6000611750826111a8565b905060003390506000611762846115c1565b9050600073ffffffffffffffffffffffffffffffffffffffff168373ffffffffffffffffffffffffffffffffffffffff16141561179e57600080fd5b600073ffffffffffffffffffffffffffffffffffffffff168273ffffffffffffffffffffffffffffffffffffffff1614156117d857600080fd5b8173ffffffffffffffffffffffffffffffffffffffff168373ffffffffffffffffffffffffffffffffffffffff16141561181157600080fd5b61181a82611ec2565b1561182457600080fd5b6000811161183157600080fd5b8034101561183e57600080fd5b611849838386611b13565b8173ffffffffffffffffffffffffffffffffffffffff168373ffffffffffffffffffffffffffffffffffffffff16857f47c2495ae9a226645e2cfa7b81ab70c2d82f35b0c69a72358812cca2f0f0bcbc600688815481106118ad576118ac6126e5565b5b9060005260206000209060020201600001600689815481106118d2576118d16126e5565b5b906000526020600020906002020160010160009054906101000a900460d81b866118fb8b6115c1565b60405161190b9493929190612882565b60405180910390a460006119288234611ed590919063ffffffff16565b905060006119536064611945600686611e5e90919063ffffffff16565b611ea790919063ffffffff16565b90503073ffffffffffffffffffffffffffffffffffffffff168573ffffffffffffffffffffffffffffffffffffffff16146119e2578473ffffffffffffffffffffffffffffffffffffffff166108fc6119b58386611ed590919063ffffffff16565b9081150290604051600060405180830381858888f193505050501580156119e0573d6000803e3d6000fd5b505b6000821115611a33578373ffffffffffffffffffffffffffffffffffffffff166108fc839081150290604051600060405180830381858888f19350505050158015611a31573d6000803e3d6000fd5b505b505050505050565b60008273ffffffffffffffffffffffffffffffffffffffff166002600084815260200190815260200160002060009054906101000a900473ffffffffffffffffffffffffffffffffffffffff1673ffffffffffffffffffffffffffffffffffffffff1614905092915050565b60008273ffffffffffffffffffffffffffffffffffffffff166005600084815260200190815260200160002060009054906101000a900473ffffffffffffffffffffffffffffffffffffffff1673ffffffffffffffffffffffffffffffffffffffff1614905092915050565b600460008373ffffffffffffffffffffffffffffffffffffffff1673ffffffffffffffffffffffffffffffffffffffff1681526020019081526020016000206000815480929190611b6390612743565b9190505550816002600083815260200190815260200160002060006101000a81548173ffffffffffffffffffffffffffffffffffffffff021916908373ffffffffffffffffffffffffffffffffffffffff160217905550600073ffffffffffffffffffffffffffffffffffffffff168373ffffffffffffffffffffffffffffffffffffffff1614611c7a57600460008473ffffffffffffffffffffffffffffffffffffffff1673ffffffffffffffffffffffffffffffffffffffff1681526020019081526020016000206000815480929190611c3e906128ce565b91905055506005600082815260200190815260200160002060006101000a81549073ffffffffffffffffffffffffffffffffffffffff02191690555b8173ffffffffffffffffffffffffffffffffffffffff168373ffffffffffffffffffffffffffffffffffffffff167fddf252ad1be2c89b69c2b068fc378daa952ba7f163c4a11628f55a4df523b3ef83604051611cd791906121b1565b60405180910390a3505050565b600080600143611cf491906128f8565b9050600081409050600060d863ffffffff60e01b7bffffffffffffffffffffffffffffffffffffffffffffffffffffffff19168316901b905080935050505090565b60006040518060400160405280868152602001857affffffffffffffffffffffffffffffffffffffffffffffffffffff1916815250905060068190806001815401808255809150506001900390600052602060002090600202016000909190919091506000820151816000019080519060200190611db5929190611efc565b5060208201518160010160006101000a81548164ffffffffff021916908360d81c0217905550505060006001600680549050611df191906128f8565b90508260036000838152602001908152602001600020819055507fe2541836f6f02475fc0b01a06c1e80d7e5098215c6015348851ceabef9d05e688187878688604051611e4295949392919061292c565b60405180910390a1611e5660008583611b13565b505050505050565b600080831415611e715760009050611ea1565b60008284611e7f9190612986565b9050828482611e8e9190612a0f565b14611e9c57611e9b612a40565b5b809150505b92915050565b6000808284611eb69190612a0f565b90508091505092915050565b600080823b905060008111915050919050565b600082821115611ee857611ee7612a40565b5b8183611ef491906128f8565b905092915050565b828054611f08906127bb565b90600052602060002090601f016020900481019282611f2a5760008555611f71565b82601f10611f4357805160ff1916838001178555611f71565b82800160010185558215611f71579182015b82811115611f70578251825591602001919060010190611f55565b5b509050611f7e9190611f82565b5090565b5b80821115611f9b576000816000905550600101611f83565b5090565b600081519050919050565b600082825260208201905092915050565b60005b83811015611fd9578082015181840152602081019050611fbe565b83811115611fe8576000848401525b50505050565b6000601f19601f8301169050919050565b600061200a82611f9f565b6120148185611faa565b9350612024818560208601611fbb565b61202d81611fee565b840191505092915050565b600060208201905081810360008301526120528184611fff565b905092915050565b6000604051905090565b600080fd5b600080fd5b600073ffffffffffffffffffffffffffffffffffffffff82169050919050565b60006120998261206e565b9050919050565b6120a98161208e565b81146120b457600080fd5b50565b6000813590506120c6816120a0565b92915050565b6000819050919050565b6120df816120cc565b81146120ea57600080fd5b50565b6000813590506120fc816120d6565b92915050565b6000806040838503121561211957612118612064565b5b6000612127858286016120b7565b9250506020612138858286016120ed565b9150509250929050565b61214b8161208e565b82525050565b60006020820190506121666000830184612142565b92915050565b60008115159050919050565b6121818161216c565b82525050565b600060208201905061219c6000830184612178565b92915050565b6121ab816120cc565b82525050565b60006020820190506121c660008301846121a2565b92915050565b6000806000606084860312156121e5576121e4612064565b5b60006121f3868287016120b7565b9350506020612204868287016120b7565b9250506040612215868287016120ed565b9150509250925092565b60006020828403121561223557612234612064565b5b6000612243848285016120b7565b91505092915050565b600081519050919050565b600082825260208201905092915050565b6000819050602082019050919050565b612281816120cc565b82525050565b60006122938383612278565b60208301905092915050565b6000602082019050919050565b60006122b78261224c565b6122c18185612257565b93506122cc83612268565b8060005b838110156122fd5781516122e48882612287565b97506122ef8361229f565b9250506001810190506122d0565b5085935050505092915050565b600081519050919050565b600082825260208201905092915050565b6000819050602082019050919050565b61233f8161208e565b82525050565b60006123518383612336565b60208301905092915050565b6000602082019050919050565b60006123758261230a565b61237f8185612315565b935061238a83612326565b8060005b838110156123bb5781516123a28882612345565b97506123ad8361235d565b92505060018101905061238e565b5085935050505092915050565b600060608201905081810360008301526123e281866122ac565b905081810360208301526123f681856122ac565b9050818103604083015261240a818461236a565b9050949350505050565b600080fd5b600080fd5b7f4e487b7100000000000000000000000000000000000000000000000000000000600052604160045260246000fd5b61245682611fee565b810181811067ffffffffffffffff821117156124755761247461241e565b5b80604052505050565b600061248861205a565b9050612494828261244d565b919050565b600067ffffffffffffffff8211156124b4576124b361241e565b5b6124bd82611fee565b9050602081019050919050565b82818337600083830152505050565b60006124ec6124e784612499565b61247e565b90508281526020810184848401111561250857612507612419565b5b6125138482856124ca565b509392505050565b600082601f8301126125305761252f612414565b5b81356125408482602086016124d9565b91505092915050565b60006020828403121561255f5761255e612064565b5b600082013567ffffffffffffffff81111561257d5761257c612069565b5b6125898482850161251b565b91505092915050565b600060208201905081810360008301526125ac81846122ac565b905092915050565b6000602082840312156125ca576125c9612064565b5b60006125d8848285016120ed565b91505092915050565b6000806000606084860312156125fa576125f9612064565b5b600084013567ffffffffffffffff81111561261857612617612069565b5b6126248682870161251b565b9350506020612635868287016120b7565b9250506040612646868287016120ed565b9150509250925092565b60007fffffffffff00000000000000000000000000000000000000000000000000000082169050919050565b61268581612650565b82525050565b600060a08201905081810360008301526126a58188611fff565b90506126b4602083018761267c565b6126c160408301866121a2565b6126ce60608301856121a2565b6126db6080830184612142565b9695505050505050565b7f4e487b7100000000000000000000000000000000000000000000000000000000600052603260045260246000fd5b7f4e487b7100000000000000000000000000000000000000000000000000000000600052601160045260246000fd5b600061274e826120cc565b91507fffffffffffffffffffffffffffffffffffffffffffffffffffffffffffffffff82141561278157612780612714565b5b600182019050919050565b7f4e487b7100000000000000000000000000000000000000000000000000000000600052602260045260246000fd5b600060028204905060018216806127d357607f821691505b602082108114156127e7576127e661278c565b5b50919050565b60008190508160005260206000209050919050565b6000815461280f816127bb565b6128198186611faa565b94506001821660008114612834576001811461284657612879565b60ff1983168652602086019350612879565b61284f856127ed565b60005b8381101561287157815481890152600182019150602081019050612852565b808801955050505b50505092915050565b6000608082019050818103600083015261289c8187612802565b90506128ab602083018661267c565b6128b860408301856121a2565b6128c560608301846121a2565b95945050505050565b60006128d9826120cc565b915060008214156128ed576128ec612714565b5b600182039050919050565b6000612903826120cc565b915061290e836120cc565b92508282101561292157612920612714565b5b828203905092915050565b600060a08201905061294160008301886121a2565b81810360208301526129538187611fff565b9050612962604083018661267c565b61296f60608301856121a2565b61297c6080830184612142565b9695505050505050565b6000612991826120cc565b915061299c836120cc565b9250817fffffffffffffffffffffffffffffffffffffffffffffffffffffffffffffffff04831182151516156129d5576129d4612714565b5b828202905092915050565b7f4e487b7100000000000000000000000000000000000000000000000000000000600052601260045260246000fd5b6000612a1a826120cc565b9150612a25836120cc565b925082612a3557612a346129e0565b5b828204905092915050565b7f4e487b7100000000000000000000000000000000000000000000000000000000600052600160045260246000fdfea264697066735822122097dfd704671ad61f6e1f4f2a5476af0d7b7ccaf46fd6ca69bf02a98de29ce00e64736f6c634300080a0033",
  "immutableReferences": {},
  "source": "pragma solidity ^0.8.6;\n\nimport \"./AccessControl.sol\";\nimport \"./ERC721.sol\";\nimport \"./SafeMath.sol\";\n\nabstract contract DetailedERC721 is ERC721 {\n  function name() public view virtual returns (string memory _name);\n\n  function symbol() public view virtual returns (string memory _symbol);\n}\n\ncontract CryptoDoggies is AccessControl, DetailedERC721 {\n  using SafeMath for uint256;\n\n  event TokenCreated(\n    uint256 tokenId,\n    string name,\n    bytes5 dna,\n    uint256 price,\n    address owner\n  );\n  event TokenSold(\n    uint256 indexed tokenId,\n    string name,\n    bytes5 dna,\n    uint256 sellingPrice,\n    uint256 newPrice,\n    address indexed oldOwner,\n    address indexed newOwner\n  );\n\n  mapping(uint256 => address) private tokenIdToOwner;\n  mapping(uint256 => uint256) private tokenIdToPrice;\n  mapping(address => uint256) private ownershipTokenCount;\n  mapping(uint256 => address) private tokenIdToApproved;\n\n  struct Doggy {\n    string name;\n    bytes5 dna;\n  }\n\n  Doggy[] private doggies;\n\n  uint256 private startingPrice = 0.01 ether;\n  bool private erc721Enabled = false;\n\n  modifier onlyERC721() {\n    require(erc721Enabled);\n    _;\n  }\n\n  function createToken(\n    string memory _name,\n    address _owner,\n    uint256 _price\n  ) public onlyCLevel {\n    require(_owner != address(0));\n    require(_price >= startingPrice);\n\n    bytes5 _dna = _generateRandomDna();\n    _createToken(_name, _dna, _owner, _price);\n  }\n\n  function createToken(string memory _name) public onlyCLevel {\n    bytes5 _dna = _generateRandomDna();\n    _createToken(_name, _dna, address(this), startingPrice);\n  }\n\n  function _generateRandomDna() private view returns (bytes5) {\n    uint256 lastBlockNumber = block.number - 1;\n    bytes32 hashVal = bytes32(blockhash(lastBlockNumber));\n    bytes5 dna = bytes5((hashVal & bytes4(0xffffffff)) << 216);\n    return dna;\n  }\n\n  function _createToken(\n    string memory _name,\n    bytes5 _dna,\n    address _owner,\n    uint256 _price\n  ) private {\n    Doggy memory _doggy = Doggy({ name: _name, dna: _dna });\n    doggies.push(_doggy);\n    uint256 newTokenId = doggies.length - 1;\n    tokenIdToPrice[newTokenId] = _price;\n\n    emit TokenCreated(newTokenId, _name, _dna, _price, _owner);\n\n    _transfer(address(0), _owner, newTokenId);\n  }\n\n  function getToken(uint256 _tokenId)\n    public\n    view\n    returns (\n      string memory _tokenName,\n      bytes5 _dna,\n      uint256 _price,\n      uint256 _nextPrice,\n      address _owner\n    )\n  {\n    _tokenName = doggies[_tokenId].name;\n    _dna = doggies[_tokenId].dna;\n    _price = tokenIdToPrice[_tokenId];\n    _nextPrice = nextPriceOf(_tokenId);\n    _owner = tokenIdToOwner[_tokenId];\n  }\n\n  function getAllTokens()\n    public\n    view\n    returns (\n      uint256[] memory,\n      uint256[] memory,\n      address[] memory\n    )\n  {\n    uint256 total = totalSupply();\n    uint256[] memory prices = new uint256[](total);\n    uint256[] memory nextPrices = new uint256[](total);\n    address[] memory owners = new address[](total);\n\n    for (uint256 i = 0; i < total; i++) {\n      prices[i] = tokenIdToPrice[i];\n      nextPrices[i] = nextPriceOf(i);\n      owners[i] = tokenIdToOwner[i];\n    }\n\n    return (prices, nextPrices, owners);\n  }\n\n  function tokensOf(address _owner) public view returns (uint256[] memory) {\n    uint256 tokenCount = balanceOf(_owner);\n    if (tokenCount == 0) {\n      return new uint256[](0);\n    } else {\n      uint256[] memory result = new uint256[](tokenCount);\n      uint256 total = totalSupply();\n      uint256 resultIndex = 0;\n\n      for (uint256 i = 0; i < total; i++) {\n        if (tokenIdToOwner[i] == _owner) {\n          result[resultIndex] = i;\n          resultIndex++;\n        }\n      }\n      return result;\n    }\n  }\n\n  function withdrawBalance(address _to, uint256 _amount) public onlyCEO {\n    require(_amount <= address(this).balance);\n\n    if (_amount == 0) {\n      _amount = address(this).balance;\n    }\n\n    if (_to == address(0)) {\n      payable(ceoAddress).transfer(_amount);\n    } else {\n      payable(_to).transfer(_amount);\n    }\n  }\n\n  function purchase(uint256 _tokenId) public payable whenNotPaused {\n    address oldOwner = ownerOf(_tokenId);\n    address newOwner = msg.sender;\n    uint256 sellingPrice = priceOf(_tokenId);\n\n    require(oldOwner != address(0));\n    require(newOwner != address(0));\n    require(oldOwner != newOwner);\n    require(!_isContract(newOwner));\n    require(sellingPrice > 0);\n    require(msg.value >= sellingPrice);\n\n    _transfer(oldOwner, newOwner, _tokenId);\n    emit TokenSold(\n      _tokenId,\n      doggies[_tokenId].name,\n      doggies[_tokenId].dna,\n      sellingPrice,\n      priceOf(_tokenId),\n      oldOwner,\n      newOwner\n    );\n\n    uint256 excess = msg.value.sub(sellingPrice);\n    uint256 contractCut = sellingPrice.mul(6).div(100); // 6% cut\n\n    if (oldOwner != address(this)) {\n      payable(oldOwner).transfer(sellingPrice.sub(contractCut));\n    }\n\n    if (excess > 0) {\n      payable(newOwner).transfer(excess);\n    }\n  }\n\n  function priceOf(uint256 _tokenId) public view returns (uint256 _price) {\n    return tokenIdToPrice[_tokenId];\n  }\n\n  uint256 private increaseLimit1 = 0.02 ether;\n  uint256 private increaseLimit2 = 0.5 ether;\n  uint256 private increaseLimit3 = 2.0 ether;\n  uint256 private increaseLimit4 = 5.0 ether;\n\n  function nextPriceOf(uint256 _tokenId)\n    public\n    view\n    returns (uint256 _nextPrice)\n  {\n    uint256 _price = priceOf(_tokenId);\n    if (_price < increaseLimit1) {\n      return _price.mul(200).div(95);\n    } else if (_price < increaseLimit2) {\n      return _price.mul(135).div(96);\n    } else if (_price < increaseLimit3) {\n      return _price.mul(125).div(97);\n    } else if (_price < increaseLimit4) {\n      return _price.mul(117).div(97);\n    } else {\n      return _price.mul(115).div(98);\n    }\n  }\n\n  function enableERC721() public onlyCEO {\n    erc721Enabled = true;\n  }\n\n  function totalSupply() public view override returns (uint256 _totalSupply) {\n    _totalSupply = doggies.length;\n  }\n\n  function balanceOf(address _owner)\n    public\n    view\n    override\n    returns (uint256 _balance)\n  {\n    _balance = ownershipTokenCount[_owner];\n  }\n\n  function ownerOf(uint256 _tokenId)\n    public\n    view\n    override\n    returns (address _owner)\n  {\n    _owner = tokenIdToOwner[_tokenId];\n  }\n\n  function approve(address _to, uint256 _tokenId)\n    public\n    override\n    whenNotPaused\n    onlyERC721\n  {\n    require(_owns(msg.sender, _tokenId));\n    tokenIdToApproved[_tokenId] = _to;\n    emit Approval(msg.sender, _to, _tokenId);\n  }\n\n  function transferFrom(\n    address _from,\n    address _to,\n    uint256 _tokenId\n  ) public override whenNotPaused onlyERC721 {\n    require(_to != address(0));\n    require(_owns(_from, _tokenId));\n    require(_approved(msg.sender, _tokenId));\n\n    _transfer(_from, _to, _tokenId);\n  }\n\n  function transfer(address _to, uint256 _tokenId)\n    public\n    override\n    whenNotPaused\n    onlyERC721\n  {\n    require(_to != address(0));\n    require(_owns(msg.sender, _tokenId));\n\n    _transfer(msg.sender, _to, _tokenId);\n  }\n\n  function implementsERC721()\n    public\n    view\n    override\n    whenNotPaused\n    returns (bool)\n  {\n    return erc721Enabled;\n  }\n\n  function takeOwnership(uint256 _tokenId)\n    public\n    override\n    whenNotPaused\n    onlyERC721\n  {\n    require(_approved(msg.sender, _tokenId));\n    _transfer(tokenIdToOwner[_tokenId], msg.sender, _tokenId);\n  }\n\n  function name() public pure override returns (string memory _name) {\n    _name = \"CryptoDoggies\";\n  }\n\n  function symbol() public pure override returns (string memory _symbol) {\n    _symbol = \"CDT\";\n  }\n\n  function _owns(address _claimant, uint256 _tokenId)\n    private\n    view\n    returns (bool)\n  {\n    return tokenIdToOwner[_tokenId] == _claimant;\n  }\n\n  function _approved(address _to, uint256 _tokenId)\n    private\n    view\n    returns (bool)\n  {\n    return tokenIdToApproved[_tokenId] == _to;\n  }\n\n  function _transfer(\n    address _from,\n    address _to,\n    uint256 _tokenId\n  ) private {\n    ownershipTokenCount[_to]++;\n    tokenIdToOwner[_tokenId] = _to;\n\n    if (_from != address(0)) {\n      ownershipTokenCount[_from]--;\n      delete tokenIdToApproved[_tokenId];\n    }\n\n    emit Transfer(_from, _to, _tokenId);\n  }\n\n  function _isContract(address addr) private view returns (bool) {\n    uint256 size;\n    assembly {\n      size := extcodesize(addr)\n    }\n    return size > 0;\n  }\n}\n",
  "sourcePath": "/home/rincewind/Documents/ethereum/cryptodoggies/contracts/CyptoDoggies.sol",
  "compiler": {
    "name": "solc",
    "version": "0.8.10+commit.fc410830.Emscripten.clang"
  },
  "schemaVersion": "3.4.3",
  "updatedAt": "2021-11-24T20:15:07.800Z",
  "networkType": "ethereum",
  "devdoc": {
    "kind": "dev",
    "methods": {
      "approve(address,uint256)": {
        "details": "Required for ERC-721 compliance.",
        "params": {
          "_to": "The address to be granted transfer approval. Pass address(0) to  clear all approvals.",
          "_tokenId": "The ID of the Token that can be transferred if this call succeeds."
        }
      },
      "balanceOf(address)": {
        "details": "Required for ERC-721 compliance.",
        "params": {
          "_owner": "The address for balance query."
        }
      },
      "ownerOf(uint256)": {
        "details": "Required for ERC-721 compliance.",
        "params": {
          "_tokenId": "The tokenID for owner inquiry."
        }
      },
      "pause()": {
        "details": "Pause the smart contract. Only can be called by the CEO"
      },
      "setCEO(address)": {
        "details": "Assigns a new address to act as the CEO. Only available to the current CEO",
        "params": {
          "_newCEO": "The address of the new CEO"
        }
      },
      "setCOO(address)": {
        "details": "Assigns a new address to act as the COO. Only available to the current CEO",
        "params": {
          "_newCOO": "The address of the new COO"
        }
      },
      "takeOwnership(uint256)": {
        "details": "Required for ERC-721 compliance.",
        "params": {
          "_tokenId": "The ID of the token that can be transferred if this call succeeds."
        }
      },
      "transfer(address,uint256)": {
        "details": "Required for ERC-721 compliance.",
        "params": {
          "_to": "The address of the recipient, can be a user or contract.",
          "_tokenId": "The ID of the token to transfer."
        }
      },
      "transferFrom(address,address,uint256)": {
        "details": "Required for ERC-721 compliance.",
        "params": {
          "_from": "The address for the token to be transferred from.",
          "_to": "The address for the token to be transferred to.",
          "_tokenId": "The ID of the Token that can be transferred if this call succeeds."
        }
      },
      "unpause()": {
        "details": "Unpauses the smart contract. Only can be called by the CEO"
      }
    },
    "version": 1
  },
  "userdoc": {
    "kind": "user",
    "methods": {
      "approve(address,uint256)": {
        "notice": "Grant another address the right to transfer token via takeOwnership() and transferFrom()"
      },
      "balanceOf(address)": {
        "notice": "For querying balance of a particular account."
      },
      "ownerOf(uint256)": {
        "notice": "For querying owner of token."
      },
      "takeOwnership(uint256)": {
        "notice": "Allow pre-approved user to take ownership of a token."
      },
      "totalSupply()": {
        "notice": "For querying totalSupply of token."
      },
      "transfer(address,uint256)": {
        "notice": "Owner initates the transfer of the token to another account."
      },
      "transferFrom(address,address,uint256)": {
        "notice": "Third-party initiates transfer of token from address _from to address _to."
      }
    },
    "version": 1
  }
}